{
  "contractName": "AcademicCredential",
  "abi": [
    {
      "inputs": [],
      "stateMutability": "nonpayable",
      "type": "constructor"
    },
    {
      "anonymous": false,
      "inputs": [
        {
          "indexed": false,
          "internalType": "string",
          "name": "studentId",
          "type": "string"
        },
        {
          "indexed": false,
          "internalType": "string",
          "name": "studentName",
          "type": "string"
        },
        {
          "indexed": false,
          "internalType": "string",
          "name": "programme",
          "type": "string"
        }
      ],
      "name": "CredentialIssued",
      "type": "event"
    },
    {
      "anonymous": false,
      "inputs": [
        {
          "indexed": false,
          "internalType": "string",
          "name": "studentId",
          "type": "string"
        }
      ],
      "name": "CredentialRevoked",
      "type": "event"
    },
    {
      "inputs": [],
      "name": "owner",
      "outputs": [
        {
          "internalType": "address",
          "name": "",
          "type": "address"
        }
      ],
      "stateMutability": "view",
      "type": "function",
      "constant": true
    },
    {
      "inputs": [],
      "name": "revokedCredentials",
      "outputs": [
        {
          "internalType": "uint256",
          "name": "",
          "type": "uint256"
        }
      ],
      "stateMutability": "view",
      "type": "function",
      "constant": true
    },
    {
      "inputs": [],
      "name": "totalCredentials",
      "outputs": [
        {
          "internalType": "uint256",
          "name": "",
          "type": "uint256"
        }
      ],
      "stateMutability": "view",
      "type": "function",
      "constant": true
    },
    {
      "inputs": [
        {
          "internalType": "string",
          "name": "_studentId",
          "type": "string"
        },
        {
          "internalType": "string",
          "name": "_studentName",
          "type": "string"
        },
        {
          "internalType": "string",
          "name": "_programme",
          "type": "string"
        },
        {
          "internalType": "string",
          "name": "_graduationDate",
          "type": "string"
        },
        {
          "internalType": "string",
          "name": "_certificateHash",
          "type": "string"
        }
      ],
      "name": "issueCredential",
      "outputs": [],
      "stateMutability": "nonpayable",
      "type": "function"
    },
    {
      "inputs": [
        {
          "internalType": "string",
          "name": "_studentId",
          "type": "string"
        }
      ],
      "name": "verifyCredential",
      "outputs": [
        {
          "internalType": "string",
          "name": "",
          "type": "string"
        },
        {
          "internalType": "string",
          "name": "",
          "type": "string"
        },
        {
          "internalType": "string",
          "name": "",
          "type": "string"
        },
        {
          "internalType": "string",
          "name": "",
          "type": "string"
        },
        {
          "internalType": "string",
          "name": "",
          "type": "string"
        },
        {
          "internalType": "uint256",
          "name": "",
          "type": "uint256"
        },
        {
          "internalType": "bool",
          "name": "",
          "type": "bool"
        }
      ],
      "stateMutability": "view",
      "type": "function",
      "constant": true
    },
    {
      "inputs": [
        {
          "internalType": "string",
          "name": "_studentId",
          "type": "string"
        }
      ],
      "name": "revokeCredential",
      "outputs": [],
      "stateMutability": "nonpayable",
      "type": "function"
    },
    {
      "inputs": [],
      "name": "getAllStudentIds",
      "outputs": [
        {
          "internalType": "string[]",
          "name": "",
          "type": "string[]"
        }
      ],
      "stateMutability": "view",
      "type": "function",
      "constant": true
    },
    {
      "inputs": [],
      "name": "getStudentCount",
      "outputs": [
        {
          "internalType": "uint256",
          "name": "",
          "type": "uint256"
        }
      ],
      "stateMutability": "view",
      "type": "function",
      "constant": true
    },
    {
      "inputs": [
        {
          "internalType": "uint256",
          "name": "index",
          "type": "uint256"
        }
      ],
      "name": "getStudentId",
      "outputs": [
        {
          "internalType": "string",
          "name": "",
          "type": "string"
        }
      ],
      "stateMutability": "view",
      "type": "function",
      "constant": true
    },
    {
      "inputs": [
        {
          "internalType": "string",
          "name": "_studentId",
          "type": "string"
        }
      ],
      "name": "credentialExists",
      "outputs": [
        {
          "internalType": "bool",
          "name": "",
          "type": "bool"
        }
      ],
      "stateMutability": "view",
      "type": "function",
      "constant": true
    },
    {
      "inputs": [],
      "name": "getDashboardStats",
      "outputs": [
        {
          "internalType": "uint256",
          "name": "",
          "type": "uint256"
        },
        {
          "internalType": "uint256",
          "name": "",
          "type": "uint256"
        },
        {
          "internalType": "uint256",
          "name": "",
          "type": "uint256"
        }
      ],
      "stateMutability": "view",
      "type": "function",
      "constant": true
    }
  ],
  "bytecode": "0x608060405234801561001057600080fd5b50600080546001600160a01b0319163317905561114a806100326000396000f3fe608060405234801561001057600080fd5b50600436106100a95760003560e01c8063834d336c11610071578063834d336c1461012a5780638da5cb5b1461013f578063a2f6805c1461016a578063a311467c1461018d578063bb3670ab146101a0578063e4473088146101c657600080fd5b80631513d62b146100ae5780633cac51fb146100ca57806341e0c407146100ea5780634e7692bb146100f25780635e9a2d2814610115575b600080fd5b6100b760035481565b6040519081526020015b60405180910390f35b6100dd6100d8366004610baf565b6101cf565b6040516100c19190610c18565b6002546100b7565b610105610100366004610cd5565b6102cc565b60405190151581526020016100c1565b610128610123366004610cd5565b6102fa565b005b610132610497565b6040516100c19190610d12565b600054610152906001600160a01b031681565b6040516001600160a01b0390911681526020016100c1565b610172610570565b604080519384526020840192909252908201526060016100c1565b61012861019b366004610d74565b610596565b6101b36101ae366004610cd5565b6107c4565b6040516100c19796959493929190610e46565b6100b760045481565b600254606090821061021f5760405162461bcd60e51b815260206004820152601460248201527324b73232bc1037baba1037b3103137bab732399760611b60448201526064015b60405180910390fd5b6002828154811061023257610232610ec3565b90600052602060002001805461024790610ed9565b80601f016020809104026020016040519081016040528092919081815260200182805461027390610ed9565b80156102c05780601f10610295576101008083540402835291602001916102c0565b820191906000526020600020905b8154815290600101906020018083116102a357829003601f168201915b50505050509050919050565b60006001826040516102de9190610f13565b9081526040519081900360200190206006015460ff1692915050565b6000546001600160a01b031633146103245760405162461bcd60e51b815260040161021690610f2f565b6001816040516103349190610f13565b9081526040519081900360200190206006015460ff166103965760405162461bcd60e51b815260206004820152601a60248201527f43726564656e7469616c20646f6573206e6f742065786973742e0000000000006044820152606401610216565b6001816040516103a69190610f13565b9081526040519081900360200190206006015460ff610100909104161561040f5760405162461bcd60e51b815260206004820152601b60248201527f43726564656e7469616c20616c7265616479207265766f6b65642e00000000006044820152606401610216565b600180826040516104209190610f13565b90815260405190819003602001902060060180549115156101000261ff00199092169190911790556004805490600061045883610f90565b91905055507f19d981dae71c0e172d789c8bef41062792bc14fa2e555bba0bae3c104d2b2a418160405161048c9190610c18565b60405180910390a150565b60606002805480602002602001604051908101604052809291908181526020016000905b828210156105675783829060005260206000200180546104da90610ed9565b80601f016020809104026020016040519081016040528092919081815260200182805461050690610ed9565b80156105535780601f1061052857610100808354040283529160200191610553565b820191906000526020600020905b81548152906001019060200180831161053657829003601f168201915b5050505050815260200190600101906104bb565b50505050905090565b60008060006003546004546003546105889190610fa9565b600454925092509250909192565b6000546001600160a01b031633146105c05760405162461bcd60e51b815260040161021690610f2f565b6001856040516105d09190610f13565b9081526040519081900360200190206006015460ff16156106335760405162461bcd60e51b815260206004820152601a60248201527f43726564656e7469616c20616c7265616479206578697374732e0000000000006044820152606401610216565b604051806101000160405280868152602001858152602001848152602001838152602001828152602001428152602001600115158152602001600015158152506001866040516106839190610f13565b908152604051908190036020019020815181906106a09082611011565b50602082015160018201906106b59082611011565b50604082015160028201906106ca9082611011565b50606082015160038201906106df9082611011565b50608082015160048201906106f49082611011565b5060a0820151600582015560c08201516006909101805460e09093015115156101000261ff00199215159290921661ffff1990931692909217179055600280546001810182556000919091527f405787fa12a823e0f2b7631cc41b3ba8828b3321ca811111fa75cd3aa3bb5ace0161076c8682611011565b506003805490600061077d83610f90565b91905055507f0e6a4bfdad0dec411057ff80cfe722c3cffed190a916432465a6e492ec802e498585856040516107b5939291906110d1565b60405180910390a15050505050565b60608060608060606000806001886040516107df9190610f13565b9081526040519081900360200190206006015460ff166108415760405162461bcd60e51b815260206004820152601a60248201527f43726564656e7469616c20646f6573206e6f742065786973742e0000000000006044820152606401610216565b60006001896040516108539190610f13565b90815260200160405180910390206040518061010001604052908160008201805461087d90610ed9565b80601f01602080910402602001604051908101604052809291908181526020018280546108a990610ed9565b80156108f65780601f106108cb576101008083540402835291602001916108f6565b820191906000526020600020905b8154815290600101906020018083116108d957829003601f168201915b5050505050815260200160018201805461090f90610ed9565b80601f016020809104026020016040519081016040528092919081815260200182805461093b90610ed9565b80156109885780601f1061095d57610100808354040283529160200191610988565b820191906000526020600020905b81548152906001019060200180831161096b57829003601f168201915b505050505081526020016002820180546109a190610ed9565b80601f01602080910402602001604051908101604052809291908181526020018280546109cd90610ed9565b8015610a1a5780601f106109ef57610100808354040283529160200191610a1a565b820191906000526020600020905b8154815290600101906020018083116109fd57829003601f168201915b50505050508152602001600382018054610a3390610ed9565b80601f0160208091040260200160405190810160405280929190818152602001828054610a5f90610ed9565b8015610aac5780601f10610a8157610100808354040283529160200191610aac565b820191906000526020600020905b815481529060010190602001808311610a8f57829003601f168201915b50505050508152602001600482018054610ac590610ed9565b80601f0160208091040260200160405190810160405280929190818152602001828054610af190610ed9565b8015610b3e5780601f10610b1357610100808354040283529160200191610b3e565b820191906000526020600020905b815481529060010190602001808311610b2157829003601f168201915b5050509183525050600582015460208083019190915260069092015460ff80821615156040808501919091526101009092041615156060928301528351928401519084015191840151608085015160a086015160e090960151949f929e50929c509a50909850919650945092505050565b600060208284031215610bc157600080fd5b5035919050565b60005b83811015610be3578181015183820152602001610bcb565b50506000910152565b60008151808452610c04816020860160208601610bc8565b601f01601f19169290920160200192915050565b602081526000610c2b6020830184610bec565b9392505050565b634e487b7160e01b600052604160045260246000fd5b600082601f830112610c5957600080fd5b813567ffffffffffffffff80821115610c7457610c74610c32565b604051601f8301601f19908116603f01168101908282118183101715610c9c57610c9c610c32565b81604052838152866020858801011115610cb557600080fd5b836020870160208301376000602085830101528094505050505092915050565b600060208284031215610ce757600080fd5b813567ffffffffffffffff811115610cfe57600080fd5b610d0a84828501610c48565b949350505050565b6000602080830181845280855180835260408601915060408160051b870101925083870160005b82811015610d6757603f19888603018452610d55858351610bec565b94509285019290850190600101610d39565b5092979650505050505050565b600080600080600060a08688031215610d8c57600080fd5b853567ffffffffffffffff80821115610da457600080fd5b610db089838a01610c48565b96506020880135915080821115610dc657600080fd5b610dd289838a01610c48565b95506040880135915080821115610de857600080fd5b610df489838a01610c48565b94506060880135915080821115610e0a57600080fd5b610e1689838a01610c48565b93506080880135915080821115610e2c57600080fd5b50610e3988828901610c48565b9150509295509295909350565b60e081526000610e5960e083018a610bec565b8281036020840152610e6b818a610bec565b90508281036040840152610e7f8189610bec565b90508281036060840152610e938188610bec565b90508281036080840152610ea78187610bec565b60a0840195909552505090151560c09091015295945050505050565b634e487b7160e01b600052603260045260246000fd5b600181811c90821680610eed57607f821691505b602082108103610f0d57634e487b7160e01b600052602260045260246000fd5b50919050565b60008251610f25818460208701610bc8565b9190910192915050565b6020808252602b908201527f4f6e6c792061646d696e6973747261746f722063616e20706572666f726d207460408201526a3434b99030b1ba34b7b71760a91b606082015260800190565b634e487b7160e01b600052601160045260246000fd5b600060018201610fa257610fa2610f7a565b5060010190565b81810381811115610fbc57610fbc610f7a565b92915050565b601f82111561100c57600081815260208120601f850160051c81016020861015610fe95750805b601f850160051c820191505b8181101561100857828155600101610ff5565b5050505b505050565b815167ffffffffffffffff81111561102b5761102b610c32565b61103f816110398454610ed9565b84610fc2565b602080601f831160018114611074576000841561105c5750858301515b600019600386901b1c1916600185901b178555611008565b600085815260208120601f198616915b828110156110a357888601518255948401946001909101908401611084565b50858210156110c15787850151600019600388901b60f8161c191681555b5050505050600190811b01905550565b6060815260006110e46060830186610bec565b82810360208401526110f68186610bec565b9050828103604084015261110a8185610bec565b969550505050505056fea26469706673582212203483597e2759cd66b114cc0b9d5d17c47bef293793444034a7c8864d04e800e264736f6c63430008140033",
  "immutableReferences": {},
  "source": "// SPDX-License-Identifier: MIT\npragma solidity ^0.8.20;\n\ncontract AcademicCredential {\n\n    address public owner;\n\n    constructor() {\n        owner = msg.sender;\n    }\n\n    modifier onlyOwner() {\n        require(msg.sender == owner, \"Only administrator can perform this action.\");\n        _;\n    }\n\n    struct Credential {\n        string studentId;\n        string studentName;\n        string programme;\n        string graduationDate;\n        string certificateHash;\n        uint256 issueDate;\n        bool exists;\n        bool revoked;\n    }\n\n    mapping(string => Credential) private credentials;\n\n    // Store all student IDs\n    string[] private studentIds;\n\n    // Dashboard statistics\n    uint256 public totalCredentials;\n    uint256 public revokedCredentials;\n\n    // Events\n    event CredentialIssued(\n        string studentId,\n        string studentName,\n        string programme\n    );\n\n    event CredentialRevoked(\n        string studentId\n    );\n\n    /**\n     * Issue Credential\n     */\n    function issueCredential(\n        string memory _studentId,\n        string memory _studentName,\n        string memory _programme,\n        string memory _graduationDate,\n        string memory _certificateHash\n    )\n        public\n        onlyOwner\n    {\n\n        require(\n            !credentials[_studentId].exists,\n            \"Credential already exists.\"\n        );\n\n        credentials[_studentId] = Credential({\n            studentId: _studentId,\n            studentName: _studentName,\n            programme: _programme,\n            graduationDate: _graduationDate,\n            certificateHash: _certificateHash,\n            issueDate: block.timestamp,\n            exists: true,\n            revoked: false\n        });\n\n        studentIds.push(_studentId);\n\n        totalCredentials++;\n\n        emit CredentialIssued(\n            _studentId,\n            _studentName,\n            _programme\n        );\n    }\n\n    /**\n     * Verify Credential\n     */\n    function verifyCredential(\n        string memory _studentId\n    )\n        public\n        view\n        returns (\n            string memory,\n            string memory,\n            string memory,\n            string memory,\n            string memory,\n            uint256,\n            bool\n        )\n    {\n\n        require(\n            credentials[_studentId].exists,\n            \"Credential does not exist.\"\n        );\n\n        Credential memory c = credentials[_studentId];\n\n        return (\n            c.studentId,\n            c.studentName,\n            c.programme,\n            c.graduationDate,\n            c.certificateHash,\n            c.issueDate,\n            c.revoked\n        );\n    }\n\n    /**\n     * Revoke Credential\n     */\n    function revokeCredential(\n        string memory _studentId\n    )\n        public\n        onlyOwner\n    {\n\n        require(\n            credentials[_studentId].exists,\n            \"Credential does not exist.\"\n        );\n\n        require(\n            !credentials[_studentId].revoked,\n            \"Credential already revoked.\"\n        );\n\n        credentials[_studentId].revoked = true;\n\n        revokedCredentials++;\n\n        emit CredentialRevoked(_studentId);\n    }\n\n    /**\n     * Get all Student IDs\n     */\n    function getAllStudentIds()\n        public\n        view\n        returns (string[] memory)\n    {\n        return studentIds;\n    }\n\n    /**\n     * Get total student IDs\n     */\n    function getStudentCount()\n        public\n        view\n        returns (uint256)\n    {\n        return studentIds.length;\n    }\n\n    /**\n     * Get Student ID by Index\n     */\n    function getStudentId(\n        uint256 index\n    )\n        public\n        view\n        returns (string memory)\n    {\n        require(\n            index < studentIds.length,\n            \"Index out of bounds.\"\n        );\n\n        return studentIds[index];\n    }\n\n    /**\n     * Check if Credential Exists\n     */\n    function credentialExists(\n        string memory _studentId\n    )\n        public\n        view\n        returns (bool)\n    {\n        return credentials[_studentId].exists;\n    }\n\n    /**\n     * Get Dashboard Statistics\n     */\n    function getDashboardStats()\n        public\n        view\n        returns (\n            uint256,\n            uint256,\n            uint256\n        )\n    {\n        return (\n            totalCredentials,\n            totalCredentials - revokedCredentials,\n            revokedCredentials\n        );\n    }\n}",
  "sourcePath": "/Users/aujikamaruddin/credential-verification/contracts/AcademicCredential.sol",
  "compiler": {
    "name": "solc",
    "version": "0.8.20+commit.a1b79de6.Emscripten.clang"
  },
  "schemaVersion": "3.4.16",
  "updatedAt": "2026-07-15T05:43:07.806Z",
  "networkType": "ethereum",
  "devdoc": {
    "kind": "dev",
    "methods": {},
    "version": 1
  },
  "userdoc": {
    "kind": "user",
    "methods": {
      "credentialExists(string)": {
        "notice": "Check if Credential Exists"
      },
      "getAllStudentIds()": {
        "notice": "Get all Student IDs"
      },
      "getDashboardStats()": {
        "notice": "Get Dashboard Statistics"
      },
      "getStudentCount()": {
        "notice": "Get total student IDs"
      },
      "getStudentId(uint256)": {
        "notice": "Get Student ID by Index"
      },
      "issueCredential(string,string,string,string,string)": {
        "notice": "Issue Credential"
      },
      "revokeCredential(string)": {
        "notice": "Revoke Credential"
      },
      "verifyCredential(string)": {
        "notice": "Verify Credential"
      }
    },
    "version": 1
  }
}